{
    "contractName": "PokerRound",
    "abi": [
        {
            "inputs": [
                {
                    "components": [
                        {
                            "internalType": "address",
                            "name": "account",
                            "type": "address"
                        },
                        {
                            "internalType": "uint256",
                            "name": "currentBalance",
                            "type": "uint256"
                        },
                        {
                            "internalType": "bool",
                            "name": "folded",
                            "type": "bool"
                        },
                        {
                            "internalType": "bool",
                            "name": "active",
                            "type": "bool"
                        },
                        {
                            "internalType": "uint8",
                            "name": "currentPosition",
                            "type": "uint8"
                        },
                        {
                            "internalType": "uint256",
                            "name": "lastBet",
                            "type": "uint256"
                        }
                    ],
                    "internalType": "struct PlayerMapping.Player[]",
                    "name": "players",
                    "type": "tuple[]"
                },
                {
                    "internalType": "uint8",
                    "name": "_position",
                    "type": "uint8"
                },
                {
                    "components": [
                        {
                            "internalType": "uint8",
                            "name": "streetState",
                            "type": "uint8"
                        },
                        {
                            "internalType": "uint8",
                            "name": "noOfCurrentPlayers",
                            "type": "uint8"
                        },
                        {
                            "internalType": "uint8",
                            "name": "firstPlayer",
                            "type": "uint8"
                        },
                        {
                            "internalType": "uint8",
                            "name": "currentPlayer",
                            "type": "uint8"
                        },
                        {
                            "internalType": "uint8",
                            "name": "lastPlayer",
                            "type": "uint8"
                        },
                        {
                            "internalType": "uint8",
                            "name": "button",
                            "type": "uint8"
                        },
                        {
                            "internalType": "bool",
                            "name": "firstBet",
                            "type": "bool"
                        },
                        {
                            "internalType": "uint8",
                            "name": "lastRaisedOrBet",
                            "type": "uint8"
                        },
                        {
                            "internalType": "uint256",
                            "name": "currentBet",
                            "type": "uint256"
                        },
                        {
                            "internalType": "uint256",
                            "name": "potSize",
                            "type": "uint256"
                        }
                    ],
                    "internalType": "struct PokerRound.BiddingState",
                    "name": "state",
                    "type": "tuple"
                }
            ],
            "name": "getPlayerAction",
            "outputs": [
                {
                    "internalType": "enum PokerRound.action",
                    "name": "",
                    "type": "PokerRound.action"
                },
                {
                    "internalType": "uint256",
                    "name": "",
                    "type": "uint256"
                }
            ],
            "stateMutability": "pure",
            "type": "function"
        }
    ],
    "bytecode": "61054a610026600b82828239805160001a60731461001957fe5b30600052607381538281f3fe73000000000000000000000000000000000000000030146080604052600436106100405760003560e01c80632b02eb541461004557806331327b241461007b575b600080fd5b81801561005157600080fd5b50610065610060366004610430565b61009c565b60405161007291906104e7565b60405180910390f35b61008e6100893660046103d2565b610116565b604051610072929190610498565b600082858560ff16815181106100ae57fe5b602002602001015160200151116100e05760405162461bcd60e51b81526004016100d7906104b0565b60405180910390fd5b82858560ff16815181106100f057fe5b602090810291909101810151018051919091039052506101200180518201905292915050565b60008060008360c001511515600115151415610149578061013e5760008092509250506101c4565b6003925090506101c4565b8061015c576001600092509250506101c4565b836101000151868660ff168151811061017157fe5b602002602001015160a0015182011415610190576002925090506101c4565b836101000151868660ff16815181106101a557fe5b602002602001015160a001518201116101bd57600080fd5b6004925090505b935093915050565b600082601f8301126101dc578081fd5b813567ffffffffffffffff8111156101f057fe5b60206101ff81828402016104f0565b828152925080830184820160c08085028701840188101561021f57600080fd5b60005b85811015610246576102348984610326565b84529284019291810191600101610222565b50505050505092915050565b8035801515811461026257600080fd5b919050565b600061014080838503121561027a578182fd5b610283816104f0565b91505061028f826103c1565b815261029d602083016103c1565b60208201526102ae604083016103c1565b60408201526102bf606083016103c1565b60608201526102d0608083016103c1565b60808201526102e160a083016103c1565b60a08201526102f260c08301610252565b60c082015261030360e083016103c1565b60e082015261010080830135818301525061012080830135818301525092915050565b600060c08284031215610337578081fd5b60405160c0810181811067ffffffffffffffff8211171561035457fe5b60405290508082356001600160a01b038116811461037157600080fd5b81526020838101359082015261038960408401610252565b604082015261039a60608401610252565b60608201526103ab608084016103c1565b608082015260a083013560a08201525092915050565b803560ff8116811461026257600080fd5b600080600061018084860312156103e7578283fd5b833567ffffffffffffffff8111156103fd578384fd5b610409868287016101cc565b935050610418602085016103c1565b91506104278560408601610267565b90509250925092565b6000806000806101a08587031215610446578081fd5b843567ffffffffffffffff81111561045c578182fd5b610468878288016101cc565b945050610477602086016103c1565b92506040850135915061048d8660608701610267565b905092959194509250565b60408101600584106104a657fe5b9281526020015290565b6020808252601a908201527f6e6f7420656e6f7567682066756e647320696e2077616c6c6574000000000000604082015260600190565b90815260200190565b60405181810167ffffffffffffffff8111828210171561050c57fe5b60405291905056fea26469706673582212206d4759335d098f270f51709b70fb73739f3633851262fa2472abd6aff4cf176864736f6c63430007040033",
    "sourcePath": "/Users/behrens/Documents/Blockchain/dev/src/poker/poker.onebiddinground.sol",
    "compiler": {
        "name": "solc",
        "version": "0.7.4+commit.3f05b770"
    },
    "functionHashes": {
        "getPlayerAction(PlayerMapping.Player[],uint8,PokerRound.BiddingState)": "31327b24",
        "payIn(PlayerMapping.Player[],uint8,uint256,PokerRound.BiddingState)": "2b02eb54"
    },
    "gasEstimates": {
        "creation": {
            "codeDepositCost": "270800",
            "executionCost": "337",
            "totalCost": "271137"
        },
        "external": {
            "getPlayerAction(PlayerMapping.Player[],uint8,PokerRound.BiddingState)": "infinite",
            "payIn(PlayerMapping.Player[],uint8,uint256,PokerRound.BiddingState)": "infinite"
        }
    }
}