{
    "contractName": "table",
    "abi": [
        {
            "inputs": [
                {
                    "internalType": "string",
                    "name": "_tableName",
                    "type": "string"
                },
                {
                    "internalType": "uint8",
                    "name": "_maxPlayers",
                    "type": "uint8"
                },
                {
                    "internalType": "uint256",
                    "name": "_bb",
                    "type": "uint256"
                },
                {
                    "internalType": "uint256",
                    "name": "_minBuyIn",
                    "type": "uint256"
                },
                {
                    "internalType": "uint256",
                    "name": "_maxBuyIn",
                    "type": "uint256"
                }
            ],
            "stateMutability": "payable",
            "type": "constructor"
        },
        {
            "anonymous": false,
            "inputs": [
                {
                    "indexed": false,
                    "internalType": "address",
                    "name": "_account",
                    "type": "address"
                },
                {
                    "indexed": false,
                    "internalType": "uint256",
                    "name": "_buyIn",
                    "type": "uint256"
                },
                {
                    "indexed": false,
                    "internalType": "uint8",
                    "name": "_position",
                    "type": "uint8"
                }
            ],
            "name": "PlayerJoined",
            "type": "event"
        },
        {
            "inputs": [],
            "name": "bank",
            "outputs": [
                {
                    "internalType": "address",
                    "name": "",
                    "type": "address"
                }
            ],
            "stateMutability": "view",
            "type": "function"
        },
        {
            "inputs": [
                {
                    "internalType": "uint256",
                    "name": "_amount",
                    "type": "uint256"
                }
            ],
            "name": "joinTable",
            "outputs": [],
            "stateMutability": "payable",
            "type": "function"
        },
        {
            "inputs": [],
            "name": "playGame",
            "outputs": [],
            "stateMutability": "nonpayable",
            "type": "function"
        }
    ],
    "bytecode": "608060405260405161047d38038061047d833981810160405260a081101561002657600080fd5b810190808051604051939291908464010000000082111561004657600080fd5b90830190602082018581111561005b57600080fd5b825164010000000081118282018810171561007557600080fd5b82525081516020918201929091019080838360005b838110156100a257818101518382015260200161008a565b50505050905090810190601f1680156100cf5780820380516001836020036101000a031916815260200191505b50604090815260208281015191830151606084015160809094015160008054306001600160a01b03199091161760ff60a01b1916600160a01b60ff8716021790558751939650909450916101299160069190880190610148565b5060028304600155600292909255600591909155600455506101e99050565b828054600181600116156101000203166002900490600052602060002090601f01602090048101928261017e57600085556101c4565b82601f1061019757805160ff19168380011785556101c4565b828001600101855582156101c4579182015b828111156101c45782518255916020019190600101906101a9565b506101d09291506101d4565b5090565b5b808211156101d057600081556001016101d5565b610285806101f86000396000f3fe6080604052600436106100345760003560e01c80633823bb031461003957806376cdb03b14610058578063af89973514610089575b600080fd5b6100566004803603602081101561004f57600080fd5b503561009e565b005b34801561006457600080fd5b5061006d610217565b604080516001600160a01b039092168252519081900360200190f35b34801561009557600080fd5b50610056610226565b6100a6610228565b3482146100fa576040805162461bcd60e51b815260206004820152601960248201527f616d6f756e7420646f65736e74206d617463682076616c756500000000000000604482015290519081900360640190fd5b60005460ff600160a01b82048116600160a81b90920416101561011b578181525b336000818152600760209081526040808320855181558583015160018083018054898601516060808c015160ff199093169515159590951761ff001916610100911515919091021762ff000019166201000060ff9283160217909155865460ff60a81b198116600160a81b9182900483169093018216810292909217968790559254845197885294870194909452929093049092168383015290517febe12099148ec1d7275ba796ef2cbc6b1cee92adde5e9f1bcc5cd6fce2764a669281900390910190a16000546001600160a81b90910460ff16118015610212575060005460ff600160a01b82048116600160a81b9092041611155b505050565b6000546001600160a01b031681565b565b6040805160808101825260008082526020820181905291810182905260608101919091529056fea264697066735822122097cb5069e704d9fd2f22a4a39f321821d68178d37434e98ed763b5b5a6a6348064736f6c63430007040033",
    "sourcePath": "/Users/behrens/Documents/Blockchain/dev/src/poker/pokpok.sol",
    "compiler": {
        "name": "solc",
        "version": "0.7.4+commit.3f05b770"
    },
    "functionHashes": {
        "bank()": "76cdb03b",
        "joinTable(uint256)": "3823bb03",
        "playGame()": "af899735"
    },
    "gasEstimates": {
        "creation": {
            "codeDepositCost": "129000",
            "executionCost": "infinite",
            "totalCost": "infinite"
        },
        "external": {
            "bank()": "1037",
            "joinTable(uint256)": "67282",
            "playGame()": "166"
        }
    }
}