{
    "contractName": "table",
    "abi": [
        {
            "inputs": [
                {
                    "internalType": "string",
                    "name": "_tableName",
                    "type": "string"
                },
                {
                    "internalType": "uint8",
                    "name": "_maxPlayers",
                    "type": "uint8"
                },
                {
                    "internalType": "uint256",
                    "name": "_bb",
                    "type": "uint256"
                },
                {
                    "internalType": "uint256",
                    "name": "_minBuyIn",
                    "type": "uint256"
                },
                {
                    "internalType": "uint256",
                    "name": "_maxBuyIn",
                    "type": "uint256"
                }
            ],
            "stateMutability": "payable",
            "type": "constructor"
        },
        {
            "anonymous": false,
            "inputs": [
                {
                    "indexed": false,
                    "internalType": "address",
                    "name": "_account",
                    "type": "address"
                },
                {
                    "indexed": false,
                    "internalType": "uint256",
                    "name": "_buyIn",
                    "type": "uint256"
                },
                {
                    "indexed": false,
                    "internalType": "uint8",
                    "name": "_position",
                    "type": "uint8"
                }
            ],
            "name": "PlayerJoined",
            "type": "event"
        },
        {
            "inputs": [],
            "name": "activePlayers",
            "outputs": [
                {
                    "internalType": "uint256",
                    "name": "size",
                    "type": "uint256"
                }
            ],
            "stateMutability": "view",
            "type": "function"
        },
        {
            "inputs": [],
            "name": "bank",
            "outputs": [
                {
                    "internalType": "address",
                    "name": "",
                    "type": "address"
                }
            ],
            "stateMutability": "view",
            "type": "function"
        },
        {
            "inputs": [],
            "name": "continousPlaying",
            "outputs": [],
            "stateMutability": "nonpayable",
            "type": "function"
        },
        {
            "inputs": [
                {
                    "internalType": "uint256",
                    "name": "_amount",
                    "type": "uint256"
                }
            ],
            "name": "joinTable",
            "outputs": [],
            "stateMutability": "payable",
            "type": "function"
        },
        {
            "inputs": [],
            "name": "noOfActivePlayers",
            "outputs": [
                {
                    "internalType": "uint8",
                    "name": "",
                    "type": "uint8"
                }
            ],
            "stateMutability": "view",
            "type": "function"
        },
        {
            "inputs": [],
            "name": "noOfWaitingPlayers",
            "outputs": [
                {
                    "internalType": "uint8",
                    "name": "",
                    "type": "uint8"
                }
            ],
            "stateMutability": "view",
            "type": "function"
        },
        {
            "inputs": [
                {
                    "components": [
                        {
                            "internalType": "address",
                            "name": "account",
                            "type": "address"
                        },
                        {
                            "internalType": "uint256",
                            "name": "currentBalance",
                            "type": "uint256"
                        },
                        {
                            "internalType": "bool",
                            "name": "folded",
                            "type": "bool"
                        },
                        {
                            "internalType": "bool",
                            "name": "active",
                            "type": "bool"
                        },
                        {
                            "internalType": "uint8",
                            "name": "currentPosition",
                            "type": "uint8"
                        },
                        {
                            "internalType": "uint256",
                            "name": "lastBet",
                            "type": "uint256"
                        }
                    ],
                    "internalType": "struct PlayerMapping.Player[]",
                    "name": "players",
                    "type": "tuple[]"
                },
                {
                    "internalType": "uint8",
                    "name": "_button",
                    "type": "uint8"
                },
                {
                    "internalType": "uint8",
                    "name": "currentPlayerIndex",
                    "type": "uint8"
                }
            ],
            "name": "playOneRound",
            "outputs": [
                {
                    "internalType": "uint8",
                    "name": "",
                    "type": "uint8"
                }
            ],
            "stateMutability": "nonpayable",
            "type": "function"
        },
        {
            "inputs": [
                {
                    "components": [
                        {
                            "internalType": "address",
                            "name": "account",
                            "type": "address"
                        },
                        {
                            "internalType": "uint256",
                            "name": "currentBalance",
                            "type": "uint256"
                        },
                        {
                            "internalType": "bool",
                            "name": "folded",
                            "type": "bool"
                        },
                        {
                            "internalType": "bool",
                            "name": "active",
                            "type": "bool"
                        },
                        {
                            "internalType": "uint8",
                            "name": "currentPosition",
                            "type": "uint8"
                        },
                        {
                            "internalType": "uint256",
                            "name": "lastBet",
                            "type": "uint256"
                        }
                    ],
                    "internalType": "struct PlayerMapping.Player[]",
                    "name": "players",
                    "type": "tuple[]"
                },
                {
                    "internalType": "uint8",
                    "name": "_button",
                    "type": "uint8"
                }
            ],
            "name": "playPostFlop",
            "outputs": [
                {
                    "internalType": "bool",
                    "name": "",
                    "type": "bool"
                }
            ],
            "stateMutability": "nonpayable",
            "type": "function"
        },
        {
            "inputs": [
                {
                    "components": [
                        {
                            "internalType": "address",
                            "name": "account",
                            "type": "address"
                        },
                        {
                            "internalType": "uint256",
                            "name": "currentBalance",
                            "type": "uint256"
                        },
                        {
                            "internalType": "bool",
                            "name": "folded",
                            "type": "bool"
                        },
                        {
                            "internalType": "bool",
                            "name": "active",
                            "type": "bool"
                        },
                        {
                            "internalType": "uint8",
                            "name": "currentPosition",
                            "type": "uint8"
                        },
                        {
                            "internalType": "uint256",
                            "name": "lastBet",
                            "type": "uint256"
                        }
                    ],
                    "internalType": "struct PlayerMapping.Player[]",
                    "name": "players",
                    "type": "tuple[]"
                },
                {
                    "internalType": "uint8",
                    "name": "_button",
                    "type": "uint8"
                },
                {
                    "internalType": "uint256",
                    "name": "_bb",
                    "type": "uint256"
                }
            ],
            "name": "playPreFlop",
            "outputs": [
                {
                    "internalType": "bool",
                    "name": "",
                    "type": "bool"
                }
            ],
            "stateMutability": "nonpayable",
            "type": "function"
        },
        {
            "inputs": [],
            "name": "waitingPlayers",
            "outputs": [
                {
                    "internalType": "uint256",
                    "name": "size",
                    "type": "uint256"
                }
            ],
            "stateMutability": "view",
            "type": "function"
        }
    ],
    "bytecode": "6080604052604051620019a4380380620019a4833981016040819052620000269162000150565b600780546001610100600160a81b031990911630610100021760ff19161760ff60a81b1916600160a81b60ff87160217905584516200006d90600d9060208801906200008d565b5060028304600855600992909255600c91909155600b55506200023f9050565b828054600181600116156101000203166002900490600052602060002090601f016020900481019282620000c5576000855562000110565b82601f10620000e057805160ff191683800117855562000110565b8280016001018555821562000110579182015b8281111562000110578251825591602001919060010190620000f3565b506200011e92915062000122565b5090565b5b808211156200011e576000815560010162000123565b805160ff811681146200014b57600080fd5b919050565b600080600080600060a0868803121562000168578081fd5b85516001600160401b03808211156200017f578283fd5b818801915088601f83011262000193578283fd5b815181811115620001a057fe5b6040516020601f8301601f1916820181018481118382101715620001c057fe5b60405282825284830181018c1015620001d7578586fd5b8593505b82841015620001fa5784840181015182850182015292830192620001db565b828411156200020b57858184840101525b8199506200021b818c0162000139565b60408c015160608d01516080909d01519b9e919d509b9a9950975050505050505050565b611755806200024f6000396000f3fe6080604052600436106100915760003560e01c8063658a063d11610059578063658a063d1461014557806376cdb03b146101655780637ea2573614610187578063895dfe831461019c5780638ea05bfa146101b157610091565b806311353e0d146100965780631a79a913146100cc5780632a883ac2146100ee5780633823bb031461010e578063493faf1514610123575b600080fd5b3480156100a257600080fd5b506100b66100b1366004611251565b6101c6565b6040516100c39190611560565b60405180910390f35b3480156100d857600080fd5b506100e1610391565b6040516100c391906116d3565b3480156100fa57600080fd5b506100b6610109366004611205565b610397565b61012161011c366004611355565b6103e0565b005b34801561012f57600080fd5b50610138610687565b6040516100c391906116dc565b34801561015157600080fd5b506101386101603660046112a6565b610697565b34801561017157600080fd5b5061017a6108e7565b6040516100c391906114b7565b34801561019357600080fd5b506101386108fb565b3480156101a857600080fd5b506100e161090b565b3480156101bd57600080fd5b50610121610911565b60006101d061103f565b845160009081600260ff8316116102025760405162461bcd60e51b81526004016101f99061167d565b60405180910390fd5b60ff82166020850152604051630ac0bad560e21b815273__$330f3f17de5d855e33bf76c7cfcac12515$__90632b02eb549061024e908b9060018c019060028c04908a90600401611524565b60206040518083038186803b15801561026657600080fd5b505af415801561027a573d6000803e3d6000fd5b505050506040513d601f19601f8201168201806040525081019061029e919061136d565b92506002860483146102c25760405162461bcd60e51b81526004016101f99061161c565b73__$330f3f17de5d855e33bf76c7cfcac12515$__632b02eb54898460ff166002816102ea57fe5b068a0189886040518563ffffffff1660e01b815260040161030e9493929190611524565b60206040518083038186803b15801561032657600080fd5b505af415801561033a573d6000803e3d6000fd5b505050506040513d601f19601f8201168201806040525081019061035e919061136d565b925085831461037f5760405162461bcd60e51b81526004016101f99061156b565b50506000909152506001949350505050565b60025481565b60006103a161103f565b835160ff8116602083015283600060015b60048160ff1610156103d2576103c9888885610697565b506001016103b2565b506001979650505050505050565b6103e8611093565b6103f0611093565b60003484146104115760405162461bcd60e51b81526004016101f990611646565b60075460ff600160a81b82048116600160b01b83048216600160b81b90930482169290920116101561054d576020808401858152338552600160608601818152600091909152600690925284517f3e5fec24aa4dc4e5aee2e025e51e1392c72a2500577559fae9665c6d52bd6a3180546001600160a01b03929092166001600160a01b0319909216919091179055517f3e5fec24aa4dc4e5aee2e025e51e1392c72a2500577559fae9665c6d52bd6a325560408401517f3e5fec24aa4dc4e5aee2e025e51e1392c72a2500577559fae9665c6d52bd6a3380549251608087015160ff16620100000262ff0000199115156101000261ff001994151560ff199096169590951793909316939093179290921617905560a08301517f3e5fec24aa4dc4e5aee2e025e51e1392c72a2500577559fae9665c6d52bd6a34555b60405163dbceea9760e01b815273__$ed56c6c25330f0d5ee65a8d75bec8f21ed$__9063dbceea979061058a9060039033906006906004016116b4565b60206040518083038186803b1580156105a257600080fd5b505af41580156105b6573d6000803e3d6000fd5b505050506040513d601f19601f820116820180604052508101906105da9190611302565b156106135760078054600160ff600160b81b808404821692909201160260ff60b81b1990911617905561060e6003336109d4565b925090505b7febe12099148ec1d7275ba796ef2cbc6b1cee92adde5e9f1bcc5cd6fce2764a663334600760179054906101000a900460ff16604051610655939291906114cb565b60405180910390a1505060078054600160ff600160b81b808404821692909201160260ff60b81b199091161790555050565b600754600160b81b900460ff1681565b6000806000806106a561103f565b600160c082015260006101008201819052885160ff8082166020850152600754600160c01b90041660e084015293505b600181151514156108da576000600189015b89860160010160ff168160ff1610156108d3578560ff168160ff168161070957fe5b0698508a8160ff168151811061071b57fe5b60200260200101516040015161086557604051630c4c9ec960e21b815273__$330f3f17de5d855e33bf76c7cfcac12515$__906331327b2490610766908e90859089906004016114ef565b604080518083038186803b15801561077d57600080fd5b505af4158015610791573d6000803e3d6000fd5b505050506040513d601f19601f820116820180604052508101906107b59190611325565b909750915060018760048111156107c857fe5b14156107fe5760018b8260ff16815181106107df57fe5b6020908102919091010151901515604090910152600190940193610865565b600087600481111561080c57fe5b1415610817576108cb565b600287600481111561082557fe5b141561085057818b8260ff168151811061083b57fe5b602002602001015160a0018181525050610865565b60ff811660e085015261010084018051830190525b60006108718c83610a90565b9050600081121561088557600093506108c9565b808560e0015160ff161480156108a7575060048860048111156108a457fe5b14155b80156108bf575060038860048111156108bc57fe5b14155b156108c957600093505b505b6001016106e7565b50506106d5565b5090979650505050505050565b60075461010090046001600160a01b031681565b600754600160b01b900460ff1681565b60055481565b606060005b60075460ff161515600114156109d0576007546009600160b01b90910460ff1610156109715761094860006003610b02565b600760166101000a81548160ff021916908360ff16021790555061096c6000610d77565b925090505b61098d82600760189054906101000a900460ff166009546101c6565b506007546109a6908390600160c01b900460ff16610397565b506109b16000610eb4565b600760166101000a81548160ff021916908360ff160217905550610916565b5050565b60006109de611093565b6109e6611093565b6001600160a01b03841660009081526020869052604090205480610a105750600092509050610a89565b505050506001600160a01b0381811660009081526020848152604091829020825160c0810184526001808301549095168152600282015492810192909252600381015460ff8082161515948401949094526101008104841615156060840152620100009004909216608082015260049091015460a08201525b9250929050565b815160009081600019600185015b85840160010160ff168160ff161215610af8578360ff168160ff1681610ac057fe5b069250868360ff1681518110610ad257fe5b602090810291909101015160400151610af0578260ff169150610af8565b600101610a9e565b5095945050505050565b6000806000806000610b12611093565b866002015460ff169450600092505b848360ff161015610d4a576000876001018460ff1681548110610b4057fe5b6000918252602080832091909101546001600160a01b039081168084528b83526040808520815160c081018352600180830154861682526002830154828801908152600384015460ff8082161515858801908152610100808404831615156060880190815262010000948590048416608089019081526004998a015460a08a0190815297909e5260069c8d905287517f3e5fec24aa4dc4e5aee2e025e51e1392c72a2500577559fae9665c6d52bd6a3180546001600160a01b03191691909d1617909b5593517f3e5fec24aa4dc4e5aee2e025e51e1392c72a2500577559fae9665c6d52bd6a3255517f3e5fec24aa4dc4e5aee2e025e51e1392c72a2500577559fae9665c6d52bd6a3380549a519c5160ff19909b169115159190911761ff0019169b15159093029a909a1762ff00001916979099169098029590951790965592517f3e5fec24aa4dc4e5aee2e025e51e1392c72a2500577559fae9665c6d52bd6a34555163dbceea9760e01b815290965092945073__$ed56c6c25330f0d5ee65a8d75bec8f21ed$__9263dbceea9792610ce0928e92899291016116b4565b60206040518083038186803b158015610cf857600080fd5b505af4158015610d0c573d6000803e3d6000fd5b505050506040513d601f19601f82011682018060405250810190610d309190611302565b50610d3b8884610f75565b96505060019093019250610b21565b8315610d685760405162461bcd60e51b81526004016101f9906115cc565b50506002549695505050505050565b600281015460009060609082808360ff841667ffffffffffffffff81118015610d9f57600080fd5b50604051908082528060200260200182016040528015610dd957816020015b610dc6611093565b815260200190600190039081610dbe5790505b509050600092505b8360ff168360ff161015610ea757866001018360ff1681548110610e0157fe5b60009182526020808320909101546001600160a01b039081168084528a8352604093849020845160c08101865260018201549093168352600281015493830193909352600383015460ff80821615159584019590955261010081048516151560608401526201000090048416608083015260049092015460a08201528351919450918391908616908110610e9157fe5b6020908102919091010152600190920191610de1565b9294509192505050915091565b60028101546000908180805b83821015610f64576000866001018381548110610ed957fe5b60009182526020808320909101546001600160a01b03168083529089905260409091206003015490925060ff61010090910416610f58576001600160a01b03821660009081526020889052604090206002015415610f495760405162461bcd60e51b81526004016101f990611595565b610f538783610f75565b945090505b50600190910190610ec0565b85600201549450505050505b919050565b6001600160a01b038116600090815260208390526040812054819080610fa5575050506002820154600090610a89565b6001600160a01b0384166000908152602086905260408120818155600180820180546001600160a01b03191690556002820183905560038201805462ffffff191690556004909101919091558086018054600019840190811061100457fe5b60009182526020909120018054911515600160a01b0260ff60a01b199092169190911790555050505060020180546000190190819055600191565b6040805161014081018252600080825260208201819052918101829052606081018290526080810182905260a0810182905260c0810182905260e08101829052610100810182905261012081019190915290565b6040805160c081018252600080825260208201819052918101829052606081018290526080810182905260a081019190915290565b600082601f8301126110d8578081fd5b813567ffffffffffffffff8111156110ec57fe5b60206110fb81828402016116ea565b828152925080830184820160c08085028701840188101561111b57600080fd5b60005b85811015611142576111308984611159565b8452928401929181019160010161111e565b50505050505092915050565b8035610f708161170e565b600060c0828403121561116a578081fd5b60405160c0810181811067ffffffffffffffff8211171561118757fe5b60405290508082356001600160a01b03811681146111a457600080fd5b8152602083810135908201526111bc6040840161114e565b60408201526111cd6060840161114e565b60608201526111de608084016111f4565b608082015260a083013560a08201525092915050565b803560ff81168114610f7057600080fd5b60008060408385031215611217578182fd5b823567ffffffffffffffff81111561122d578283fd5b611239858286016110c8565b925050611248602084016111f4565b90509250929050565b600080600060608486031215611265578081fd5b833567ffffffffffffffff81111561127b578182fd5b611287868287016110c8565b935050611296602085016111f4565b9150604084013590509250925092565b6000806000606084860312156112ba578283fd5b833567ffffffffffffffff8111156112d0578384fd5b6112dc868287016110c8565b9350506112eb602085016111f4565b91506112f9604085016111f4565b90509250925092565b600060208284031215611313578081fd5b815161131e8161170e565b9392505050565b60008060408385031215611337578182fd5b825160058110611345578283fd5b6020939093015192949293505050565b600060208284031215611366578081fd5b5035919050565b60006020828403121561137e578081fd5b5051919050565b6000815180845260208085019450808401835b838110156113f857815180516001600160a01b03168852838101518489015260408082015115159089015260608082015115159089015260808082015160ff169089015260a0908101519088015260c09096019590820190600101611398565b509495945050505050565b15159052565b6114148282516114b0565b602081015161142660208401826114b0565b50604081015161143960408401826114b0565b50606081015161144c60608401826114b0565b50608081015161145f60808401826114b0565b5060a081015161147260a08401826114b0565b5060c081015161148560c0840182611403565b5060e081015161149860e08401826114b0565b50610100818101519083015261012090810151910152565b60ff169052565b6001600160a01b0391909116815260200190565b6001600160a01b03939093168352602083019190915260ff16604082015260600190565b600061018080835261150381840187611385565b91505060ff8416602083015261151c6040830184611409565b949350505050565b60006101a080835261153881840188611385565b91505060ff851660208301528360408301526115576060830184611409565b95945050505050565b901515815260200190565b60208082526010908201526f31b7bab632373a103830bca4b710313160811b604082015260600190565b60208082526017908201527f636f756c646e742063617368206f757420706c61796572000000000000000000604082015260600190565b60208082526030908201527f6572726f7220696e20616464696e672077616974696e6720706c61796572732060408201526f3a379030b1ba34bb32903937b9ba32b960811b606082015260800190565b60208082526010908201526f31b7bab632373a103830bca4b71039b160811b604082015260600190565b60208082526019908201527f616d6f756e7420646f65736e74206d617463682076616c756500000000000000604082015260600190565b6020808252601e908201527f68656164732075702069732061206f6e20616e6f74686572207461626c650000604082015260600190565b9283526001600160a01b03919091166020830152604082015260600190565b90815260200190565b60ff91909116815260200190565b60405181810167ffffffffffffffff8111828210171561170657fe5b604052919050565b801515811461171c57600080fd5b5056fea264697066735822122030dbec8d6321dc8c0c1ce4f3b9a79b0739807757b835ff81dfbfb6c2d5a879ed64736f6c63430007040033",
    "sourcePath": "/Users/behrens/Documents/Blockchain/dev/src/poker/pokpok.sol",
    "compiler": {
        "name": "solc",
        "version": "0.7.4+commit.3f05b770"
    },
    "functionHashes": {
        "activePlayers()": "1a79a913",
        "bank()": "76cdb03b",
        "continousPlaying()": "8ea05bfa",
        "joinTable(uint256)": "3823bb03",
        "noOfActivePlayers()": "7ea25736",
        "noOfWaitingPlayers()": "493faf15",
        "playOneRound((address,uint256,bool,bool,uint8,uint256)[],uint8,uint8)": "658a063d",
        "playPostFlop((address,uint256,bool,bool,uint8,uint256)[],uint8)": "2a883ac2",
        "playPreFlop((address,uint256,bool,bool,uint8,uint256)[],uint8,uint256)": "11353e0d",
        "waitingPlayers()": "895dfe83"
    },
    "gasEstimates": {
        "creation": {
            "codeDepositCost": "1194600",
            "executionCost": "infinite",
            "totalCost": "infinite"
        },
        "external": {
            "activePlayers()": "1051",
            "bank()": "1103",
            "continousPlaying()": "infinite",
            "joinTable(uint256)": "infinite",
            "noOfActivePlayers()": "1107",
            "noOfWaitingPlayers()": "1152",
            "playOneRound((address,uint256,bool,bool,uint8,uint256)[],uint8,uint8)": "infinite",
            "playPostFlop((address,uint256,bool,bool,uint8,uint256)[],uint8)": "infinite",
            "playPreFlop((address,uint256,bool,bool,uint8,uint256)[],uint8,uint256)": "infinite",
            "waitingPlayers()": "1094"
        },
        "internal": {
            "append(struct PlayerMapping.Players storage pointer,struct PlayerMapping.Players storage pointer)": "infinite",
            "serialize(struct PlayerMapping.Players storage pointer)": "infinite"
        }
    }
}