{
    "contractName": "table",
    "abi": [
        {
            "inputs": [
                {
                    "internalType": "string",
                    "name": "_tableName",
                    "type": "string"
                },
                {
                    "internalType": "uint8",
                    "name": "_maxPlayers",
                    "type": "uint8"
                },
                {
                    "internalType": "uint256",
                    "name": "_bb",
                    "type": "uint256"
                },
                {
                    "internalType": "uint256",
                    "name": "_minBuyIn",
                    "type": "uint256"
                },
                {
                    "internalType": "uint256",
                    "name": "_maxBuyIn",
                    "type": "uint256"
                }
            ],
            "stateMutability": "payable",
            "type": "constructor"
        },
        {
            "anonymous": false,
            "inputs": [
                {
                    "indexed": false,
                    "internalType": "address",
                    "name": "_account",
                    "type": "address"
                },
                {
                    "indexed": false,
                    "internalType": "uint256",
                    "name": "_buyIn",
                    "type": "uint256"
                },
                {
                    "indexed": false,
                    "internalType": "uint8",
                    "name": "_position",
                    "type": "uint8"
                }
            ],
            "name": "PlayerJoined",
            "type": "event"
        },
        {
            "inputs": [],
            "name": "activePlayers",
            "outputs": [
                {
                    "internalType": "uint256",
                    "name": "size",
                    "type": "uint256"
                }
            ],
            "stateMutability": "view",
            "type": "function"
        },
        {
            "inputs": [],
            "name": "bank",
            "outputs": [
                {
                    "internalType": "address",
                    "name": "",
                    "type": "address"
                }
            ],
            "stateMutability": "view",
            "type": "function"
        },
        {
            "inputs": [],
            "name": "continousPlaying",
            "outputs": [],
            "stateMutability": "nonpayable",
            "type": "function"
        },
        {
            "inputs": [
                {
                    "internalType": "uint256",
                    "name": "_amount",
                    "type": "uint256"
                }
            ],
            "name": "joinTable",
            "outputs": [],
            "stateMutability": "payable",
            "type": "function"
        },
        {
            "inputs": [],
            "name": "noOfActivePlayers",
            "outputs": [
                {
                    "internalType": "uint8",
                    "name": "",
                    "type": "uint8"
                }
            ],
            "stateMutability": "view",
            "type": "function"
        },
        {
            "inputs": [],
            "name": "noOfWaitingPlayers",
            "outputs": [
                {
                    "internalType": "uint8",
                    "name": "",
                    "type": "uint8"
                }
            ],
            "stateMutability": "view",
            "type": "function"
        },
        {
            "inputs": [
                {
                    "components": [
                        {
                            "internalType": "address",
                            "name": "account",
                            "type": "address"
                        },
                        {
                            "internalType": "uint256",
                            "name": "currentBalance",
                            "type": "uint256"
                        },
                        {
                            "internalType": "bool",
                            "name": "folded",
                            "type": "bool"
                        },
                        {
                            "internalType": "bool",
                            "name": "active",
                            "type": "bool"
                        },
                        {
                            "internalType": "uint8",
                            "name": "currentPosition",
                            "type": "uint8"
                        },
                        {
                            "internalType": "uint256",
                            "name": "lastBet",
                            "type": "uint256"
                        }
                    ],
                    "internalType": "struct PlayerMapping.Player[]",
                    "name": "players",
                    "type": "tuple[]"
                },
                {
                    "internalType": "uint8",
                    "name": "_button",
                    "type": "uint8"
                },
                {
                    "internalType": "uint256",
                    "name": "_bb",
                    "type": "uint256"
                }
            ],
            "name": "playPostFlop",
            "outputs": [
                {
                    "internalType": "bool",
                    "name": "",
                    "type": "bool"
                }
            ],
            "stateMutability": "nonpayable",
            "type": "function"
        },
        {
            "inputs": [
                {
                    "components": [
                        {
                            "internalType": "address",
                            "name": "account",
                            "type": "address"
                        },
                        {
                            "internalType": "uint256",
                            "name": "currentBalance",
                            "type": "uint256"
                        },
                        {
                            "internalType": "bool",
                            "name": "folded",
                            "type": "bool"
                        },
                        {
                            "internalType": "bool",
                            "name": "active",
                            "type": "bool"
                        },
                        {
                            "internalType": "uint8",
                            "name": "currentPosition",
                            "type": "uint8"
                        },
                        {
                            "internalType": "uint256",
                            "name": "lastBet",
                            "type": "uint256"
                        }
                    ],
                    "internalType": "struct PlayerMapping.Player[]",
                    "name": "players",
                    "type": "tuple[]"
                },
                {
                    "internalType": "uint8",
                    "name": "_button",
                    "type": "uint8"
                },
                {
                    "internalType": "uint256",
                    "name": "_bb",
                    "type": "uint256"
                }
            ],
            "name": "playPreFlop",
            "outputs": [
                {
                    "internalType": "bool",
                    "name": "",
                    "type": "bool"
                }
            ],
            "stateMutability": "nonpayable",
            "type": "function"
        },
        {
            "inputs": [],
            "name": "waitingPlayers",
            "outputs": [
                {
                    "internalType": "uint256",
                    "name": "size",
                    "type": "uint256"
                }
            ],
            "stateMutability": "view",
            "type": "function"
        }
    ],
    "bytecode": "60806040526040516200189238038062001892833981016040819052620000269162000150565b600780546001610100600160a81b031990911630610100021760ff19161760ff60a81b1916600160a81b60ff87160217905584516200006d90600d9060208801906200008d565b5060028304600855600992909255600c91909155600b55506200023f9050565b828054600181600116156101000203166002900490600052602060002090601f016020900481019282620000c5576000855562000110565b82601f10620000e057805160ff191683800117855562000110565b8280016001018555821562000110579182015b8281111562000110578251825591602001919060010190620000f3565b506200011e92915062000122565b5090565b5b808211156200011e576000815560010162000123565b805160ff811681146200014b57600080fd5b919050565b600080600080600060a0868803121562000168578081fd5b85516001600160401b03808211156200017f578283fd5b818801915088601f83011262000193578283fd5b815181811115620001a057fe5b6040516020601f8301601f1916820181018481118382101715620001c057fe5b60405282825284830181018c1015620001d7578586fd5b8593505b82841015620001fa5784840181015182850182015292830192620001db565b828411156200020b57858184840101525b8199506200021b818c0162000139565b60408c015160608d01516080909d01519b9e919d509b9a9950975050505050505050565b611643806200024f6000396000f3fe6080604052600436106100865760003560e01c80634acc92d2116100595780634acc92d21461011a57806376cdb03b1461013a5780637ea257361461015c578063895dfe83146101715780638ea05bfa1461018657610086565b806311353e0d1461008b5780631a79a913146100c15780633823bb03146100e3578063493faf15146100f8575b600080fd5b34801561009757600080fd5b506100ab6100a6366004611126565b61019b565b6040516100b8919061144e565b60405180910390f35b3480156100cd57600080fd5b506100d661036b565b6040516100b891906115c1565b6100f66100f1366004611243565b610371565b005b34801561010457600080fd5b5061010d610618565b6040516100b891906115ca565b34801561012657600080fd5b506100ab610135366004611126565b610628565b34801561014657600080fd5b5061014f61088a565b6040516100b891906113a5565b34801561016857600080fd5b5061010d61089e565b34801561017d57600080fd5b506100d66108ae565b34801561019257600080fd5b506100f66108b4565b60006101a5610fe6565b845160009081908180600260ff8416116101da5760405162461bcd60e51b81526004016101d19061156b565b60405180910390fd5b60ff83166020870152604051630ac0bad560e21b815273__$330f3f17de5d855e33bf76c7cfcac12515$__90632b02eb5490610226908d9060018e019060028e04908c90600401611412565b60206040518083038186803b15801561023e57600080fd5b505af4158015610252573d6000803e3d6000fd5b505050506040513d601f19601f82011682018060405250810190610276919061125b565b945060028804851461029a5760405162461bcd60e51b81526004016101d19061150a565b73__$330f3f17de5d855e33bf76c7cfcac12515$__632b02eb548b8560ff166002816102c257fe5b068c018b8a6040518563ffffffff1660e01b81526004016102e69493929190611412565b60206040518083038186803b1580156102fe57600080fd5b505af4158015610312573d6000803e3d6000fd5b505050506040513d601f19601f82011682018060405250810190610336919061125b565b94508785146103575760405162461bcd60e51b81526004016101d190611459565b505060009093525060019695505050505050565b60025481565b61037961103a565b61038161103a565b60003484146103a25760405162461bcd60e51b81526004016101d190611534565b60075460ff600160a81b82048116600160b01b83048216600160b81b9093048216929092011610156104de576020808401858152338552600160608601818152600091909152600690925284517f3e5fec24aa4dc4e5aee2e025e51e1392c72a2500577559fae9665c6d52bd6a3180546001600160a01b03929092166001600160a01b0319909216919091179055517f3e5fec24aa4dc4e5aee2e025e51e1392c72a2500577559fae9665c6d52bd6a325560408401517f3e5fec24aa4dc4e5aee2e025e51e1392c72a2500577559fae9665c6d52bd6a3380549251608087015160ff16620100000262ff0000199115156101000261ff001994151560ff199096169590951793909316939093179290921617905560a08301517f3e5fec24aa4dc4e5aee2e025e51e1392c72a2500577559fae9665c6d52bd6a34555b60405163dbceea9760e01b815273__$ed56c6c25330f0d5ee65a8d75bec8f21ed$__9063dbceea979061051b9060039033906006906004016115a2565b60206040518083038186803b15801561053357600080fd5b505af4158015610547573d6000803e3d6000fd5b505050506040513d601f19601f8201168201806040525081019061056b91906111f0565b156105a45760078054600160ff600160b81b808404821692909201160260ff60b81b1990911617905561059f60033361097b565b925090505b7febe12099148ec1d7275ba796ef2cbc6b1cee92adde5e9f1bcc5cd6fce2764a663334600760179054906101000a900460ff166040516105e6939291906113b9565b60405180910390a1505060078054600160ff600160b81b808404821692909201160260ff60b81b199091161790555050565b600754600160b81b900460ff1681565b6000610632610fe6565b845160ff81166020830152600090858260015b60048160ff16101561087a57600160c08701526000610100870152600754600160c01b900460ff1660e08701525b6001851515141561087257600060018a015b8a860160010160ff168160ff16101561086b578560ff168160ff16816106a757fe5b0694508b8160ff16815181106106b957fe5b6020026020010151604001516107fd57604051630c4c9ec960e21b815273__$330f3f17de5d855e33bf76c7cfcac12515$__906331327b2490610704908f9085908d906004016113dd565b604080518083038186803b15801561071b57600080fd5b505af415801561072f573d6000803e3d6000fd5b505050506040513d601f19601f820116820180604052508101906107539190611213565b9094509150600184600481111561076657fe5b14156107965760018c8260ff168151811061077d57fe5b60209081029190910101519015156040909101526107fd565b60008460048111156107a457fe5b14156107af57610863565b60028460048111156107bd57fe5b14156107e857818c8260ff16815181106107d357fe5b602002602001015160a00181815250506107fd565b60ff811660e089015261010088018051830190525b60006108098d83610a37565b9050600081121561081d5760009750610861565b808960e0015160ff1614801561083f5750600485600481111561083c57fe5b14155b80156108575750600385600481111561085457fe5b14155b1561086157600097505b505b600101610685565b5050610673565b600101610645565b5060019998505050505050505050565b60075461010090046001600160a01b031681565b600754600160b01b900460ff1681565b60055481565b606060005b60075460ff16151560011415610977576007546009600160b01b90910460ff161015610914576108eb60006003610aa9565b600760166101000a81548160ff021916908360ff16021790555061090f6000610d1e565b925090505b61093082600760189054906101000a900460ff1660095461019b565b5061094d82600760189054906101000a900460ff16600954610628565b506109586000610e5b565b600760166101000a81548160ff021916908360ff1602179055506108b9565b5050565b600061098561103a565b61098d61103a565b6001600160a01b038416600090815260208690526040902054806109b75750600092509050610a30565b505050506001600160a01b0381811660009081526020848152604091829020825160c0810184526001808301549095168152600282015492810192909252600381015460ff8082161515948401949094526101008104841615156060840152620100009004909216608082015260049091015460a08201525b9250929050565b815160009081600019600185015b85840160010160ff168160ff161215610a9f578360ff168160ff1681610a6757fe5b069250868360ff1681518110610a7957fe5b602090810291909101015160400151610a97578260ff169150610a9f565b600101610a45565b5095945050505050565b6000806000806000610ab961103a565b866002015460ff169450600092505b848360ff161015610cf1576000876001018460ff1681548110610ae757fe5b6000918252602080832091909101546001600160a01b039081168084528b83526040808520815160c081018352600180830154861682526002830154828801908152600384015460ff8082161515858801908152610100808404831615156060880190815262010000948590048416608089019081526004998a015460a08a0190815297909e5260069c8d905287517f3e5fec24aa4dc4e5aee2e025e51e1392c72a2500577559fae9665c6d52bd6a3180546001600160a01b03191691909d1617909b5593517f3e5fec24aa4dc4e5aee2e025e51e1392c72a2500577559fae9665c6d52bd6a3255517f3e5fec24aa4dc4e5aee2e025e51e1392c72a2500577559fae9665c6d52bd6a3380549a519c5160ff19909b169115159190911761ff0019169b15159093029a909a1762ff00001916979099169098029590951790965592517f3e5fec24aa4dc4e5aee2e025e51e1392c72a2500577559fae9665c6d52bd6a34555163dbceea9760e01b815290965092945073__$ed56c6c25330f0d5ee65a8d75bec8f21ed$__9263dbceea9792610c87928e92899291016115a2565b60206040518083038186803b158015610c9f57600080fd5b505af4158015610cb3573d6000803e3d6000fd5b505050506040513d601f19601f82011682018060405250810190610cd791906111f0565b50610ce28884610f1c565b96505060019093019250610ac8565b8315610d0f5760405162461bcd60e51b81526004016101d1906114ba565b50506002549695505050505050565b600281015460009060609082808360ff841667ffffffffffffffff81118015610d4657600080fd5b50604051908082528060200260200182016040528015610d8057816020015b610d6d61103a565b815260200190600190039081610d655790505b509050600092505b8360ff168360ff161015610e4e57866001018360ff1681548110610da857fe5b60009182526020808320909101546001600160a01b039081168084528a8352604093849020845160c08101865260018201549093168352600281015493830193909352600383015460ff80821615159584019590955261010081048516151560608401526201000090048416608083015260049092015460a08201528351919450918391908616908110610e3857fe5b6020908102919091010152600190920191610d88565b9294509192505050915091565b60028101546000908180805b83821015610f0b576000866001018381548110610e8057fe5b60009182526020808320909101546001600160a01b03168083529089905260409091206003015490925060ff61010090910416610eff576001600160a01b03821660009081526020889052604090206002015415610ef05760405162461bcd60e51b81526004016101d190611483565b610efa8783610f1c565b945090505b50600190910190610e67565b85600201549450505050505b919050565b6001600160a01b038116600090815260208390526040812054819080610f4c575050506002820154600090610a30565b6001600160a01b0384166000908152602086905260408120818155600180820180546001600160a01b03191690556002820183905560038201805462ffffff1916905560049091019190915580860180546000198401908110610fab57fe5b60009182526020909120018054911515600160a01b0260ff60a01b199092169190911790555050505060020180546000190190819055600191565b6040805161014081018252600080825260208201819052918101829052606081018290526080810182905260a0810182905260c0810182905260e08101829052610100810182905261012081019190915290565b6040805160c081018252600080825260208201819052918101829052606081018290526080810182905260a081019190915290565b8035610f17816115fc565b600060c0828403121561108b578081fd5b60405160c0810181811067ffffffffffffffff821117156110a857fe5b60405290508082356001600160a01b03811681146110c557600080fd5b8152602083810135908201526110dd6040840161106f565b60408201526110ee6060840161106f565b60608201526110ff60808401611115565b608082015260a083013560a08201525092915050565b803560ff81168114610f1757600080fd5b60008060006060848603121561113a578283fd5b833567ffffffffffffffff80821115611151578485fd5b818601915086601f830112611164578485fd5b81358181111561117057fe5b6020915061118182838302016115d8565b8181528281019084840160c0808502870186018c101561119f57898afd5b8996505b848710156111cb576111b58c8361107a565b84526001969096019592850192908101906111a3565b50508097505050506111de818701611115565b93505050604084013590509250925092565b600060208284031215611201578081fd5b815161120c816115fc565b9392505050565b60008060408385031215611225578182fd5b825160058110611233578283fd5b6020939093015192949293505050565b600060208284031215611254578081fd5b5035919050565b60006020828403121561126c578081fd5b5051919050565b6000815180845260208085019450808401835b838110156112e657815180516001600160a01b03168852838101518489015260408082015115159089015260608082015115159089015260808082015160ff169089015260a0908101519088015260c09096019590820190600101611286565b509495945050505050565b15159052565b61130282825161139e565b6020810151611314602084018261139e565b506040810151611327604084018261139e565b50606081015161133a606084018261139e565b50608081015161134d608084018261139e565b5060a081015161136060a084018261139e565b5060c081015161137360c08401826112f1565b5060e081015161138660e084018261139e565b50610100818101519083015261012090810151910152565b60ff169052565b6001600160a01b0391909116815260200190565b6001600160a01b03939093168352602083019190915260ff16604082015260600190565b60006101808083526113f181840187611273565b91505060ff8416602083015261140a60408301846112f7565b949350505050565b60006101a080835261142681840188611273565b91505060ff8516602083015283604083015261144560608301846112f7565b95945050505050565b901515815260200190565b60208082526010908201526f31b7bab632373a103830bca4b710313160811b604082015260600190565b60208082526017908201527f636f756c646e742063617368206f757420706c61796572000000000000000000604082015260600190565b60208082526030908201527f6572726f7220696e20616464696e672077616974696e6720706c61796572732060408201526f3a379030b1ba34bb32903937b9ba32b960811b606082015260800190565b60208082526010908201526f31b7bab632373a103830bca4b71039b160811b604082015260600190565b60208082526019908201527f616d6f756e7420646f65736e74206d617463682076616c756500000000000000604082015260600190565b6020808252601e908201527f68656164732075702069732061206f6e20616e6f74686572207461626c650000604082015260600190565b9283526001600160a01b03919091166020830152604082015260600190565b90815260200190565b60ff91909116815260200190565b60405181810167ffffffffffffffff811182821017156115f457fe5b604052919050565b801515811461160a57600080fd5b5056fea26469706673582212201fb4f5076cbe13e41ee8cfe661c2becd600d205b88ea0c73ee30d020cb8a640c64736f6c63430007040033",
    "sourcePath": "/Users/behrens/Documents/Blockchain/dev/src/poker/pokpok.sol",
    "compiler": {
        "name": "solc",
        "version": "0.7.4+commit.3f05b770"
    },
    "functionHashes": {
        "activePlayers()": "1a79a913",
        "bank()": "76cdb03b",
        "continousPlaying()": "8ea05bfa",
        "joinTable(uint256)": "3823bb03",
        "noOfActivePlayers()": "7ea25736",
        "noOfWaitingPlayers()": "493faf15",
        "playPostFlop((address,uint256,bool,bool,uint8,uint256)[],uint8,uint256)": "4acc92d2",
        "playPreFlop((address,uint256,bool,bool,uint8,uint256)[],uint8,uint256)": "11353e0d",
        "waitingPlayers()": "895dfe83"
    },
    "gasEstimates": {
        "creation": {
            "codeDepositCost": "1139800",
            "executionCost": "infinite",
            "totalCost": "infinite"
        },
        "external": {
            "activePlayers()": "1051",
            "bank()": "1103",
            "continousPlaying()": "infinite",
            "joinTable(uint256)": "infinite",
            "noOfActivePlayers()": "1107",
            "noOfWaitingPlayers()": "1130",
            "playPostFlop((address,uint256,bool,bool,uint8,uint256)[],uint8,uint256)": "infinite",
            "playPreFlop((address,uint256,bool,bool,uint8,uint256)[],uint8,uint256)": "infinite",
            "waitingPlayers()": "1094"
        },
        "internal": {
            "append(struct PlayerMapping.Players storage pointer,struct PlayerMapping.Players storage pointer)": "infinite",
            "serialize(struct PlayerMapping.Players storage pointer)": "infinite"
        }
    }
}